:020000040800F2
:1000000000C00020D1770008DD6B0008E96B000814
:10001000EF6B0008F56B0008FB6B000800000000A8
:10002000000000000000000000000000016C00085B
:100030000D6C000800000000196C0008256C000819
:10004000197800081978000819780008197800084C
:10005000197800081978000819780008197800083C
:10006000197800081978000819780008197800082C
:10007000197800081978000819780008316C000810
:10008000456C0008197800081978000819780008EC
:10009000197800081978000819780008596C0008C8
:1000A00019780008197800081978000819780008EC
:1000B000696C00087D6C0008197800081978000840
:1000C00019780008197800081978000819780008CC
:1000D00019780008C16C0008E96C0008197800085C
:1000E000116D0008197800081978000819780008BF
:1000F000197800081978000819780008197800089C
:10010000197800081978000819780008197800088B
:10011000197800081978000819780008197800087B
:10012000197800081978000819780008197800086B
:1001300000000000000000000000000000000000BF
:1001400000000000000000000000000000000000AF
:10015000000000000000000000000000000000009F
:10016000000000000000000000000000000000008F
:10017000000000000000000000000000000000007F
:10018000000000000000000000000000000000006F
:10019000000000000000000000000000000000005F
:1001A000000000000000000000000000000000004F
:1001B000000000000000000000000000000000003F
:1001C000000000000000000000000000000000002F
:1001D000000000000000000000000000000000001F
:0401E0005FF8E0F1F3
:1001E80010B5054C237833B9044B13B10448AFF369
:1001F80000800123237010BD7C0000200000000057
:10020800E4AC000808B5034B1BB103490348AFF33E
:10021800008008BD0000000080000020E4AC000859
:1002280010F8012B11F8013B012A28BF9A42F7D098
:10023800D01A7047034613F8012B002AFBD1181A6D
:100248000138704770B54FF0FF0C4CF4E06C1CEAB5
:1002580011541DBF1CEA135594EA0C0F95EA0C0FB4
:1002680000F0DEF82C4481EA030621EA4C5123EA27
:100278004C5350EA013518BF52EA033541F4801156
:1002880043F4801338D0A0FB02CE4FF00005E1FB09
:1002980002E506F00042E0FB03E54FF00006E1FB53
:1002A80003569CF0000F18BF4EF0010EA4F1FF0496
:1002B800B6F5007F64F5407404D25FEA4E0E6D41D6
:1002C80046EB060642EAC62141EA55514FEAC520E7
:1002D80040EA5E504FEACE2EB4F1FD0C88BFBCF563
:1002E800E06F1ED8BEF1004F08BF5FEA500E50F114
:1002F800000041EB045170BD06F0004646EA0101DA
:1003080040EA020081EA0301B4EB5C04C2BFD4EB0B
:100318000C0541EA045170BD41F480114FF0000E04
:10032800013C00F3AB8014F1360FDEBF002001F072
:10033800004170BDC4F10004203C35DA0C341BDCEC
:1003480004F11404C4F1200500FA05F320FA04F0BE
:1003580001FA05F240EA020001F0004221F00041F2
:1003680010EBD37021FA04F642EB06015EEA430E65
:1003780008BF20EAD37070BDC4F10C04C4F1200595
:1003880000FA04F320FA05F001FA04F240EA020048
:1003980001F0004110EBD37041F100015EEA430E19
:1003A80008BF20EAD37070BDC4F1200500FA05F239
:1003B8004EEA020E20FA04F301FA05F243EA0203B8
:1003C80021FA04F001F0004121FA04F220EA0200C7
:1003D80000EBD3705EEA430E08BF20EAD37070BD0D
:1003E80094F0000F0FD101F00046400041EB0101ED
:1003F80011F4801F08BF013CF7D041EA060195F0CF
:10040800000F18BF704703F00046520043EB030388
:1004180013F4801F08BF013DF7D043EA0603704775
:1004280094EA0C0F0CEA135518BF95EA0C0F0CD080
:1004380050EA410618BF52EA4306D1D181EA0301C6
:1004480001F000414FF0000070BD50EA410606BFC0
:100458001046194652EA430619D094EA0C0F02D105
:1004680050EA013613D195EA0C0F05D152EA03364A
:100478001CBF104619460AD181EA030101F0004168
:1004880041F0FE4141F470014FF0000070BD41F0B1
:10049800FE4141F4780170BD81F0004102E000BFE7
:1004A80083F0004330B54FEA41044FEA430594EA2C
:1004B800050F08BF90EA020F1FBF54EA000C55EA67
:1004C800020C7FEA645C7FEA655C00F0E2804FEA38
:1004D8005454D4EB5555B8BF6D420CDD2C4480EA1A
:1004E800020281EA030382EA000083EA010180EA4A
:1004F800020281EA0303362D88BF30BD11F0004F98
:100508004FEA01314FF4801C4CEA113102D04042CD
:1005180061EB410113F0004F4FEA03334CEA133308
:1005280002D0524263EB430394EA050F00F0A78020
:10053800A4F10104D5F1200E0DDB02FA0EFC22FA1B
:1005480005F2801841F1000103FA0EF2801843FA0F
:1005580005F359410EE0A5F120050EF1200E012A00
:1005680003FA0EFC28BF4CF0020C43FA05F3C0183E
:1005780051EBE37101F0004507D54FF0000EDCF1B7
:10058800000C7EEB00006EEB0101B1F5801F1BD360
:10059800B1F5001F0CD349085FEA30004FEA3C0C64
:1005A80004F101044FEA445212F5800F80F09A805A
:1005B800BCF1004F08BF5FEA500C50F1000041EB5E
:1005C800045141EA050130BD5FEA4C0C404141EB62
:1005D8000101013C28BFB1F5801FE9D291F0000F5D
:1005E80004BF01460020B1FA81F308BF2033A3F10C
:1005F8000B03B3F120020CDA0C3208DD02F1140C03
:10060800C2F10C0201FA0CF021FA02F10CE002F13D
:100618001402D8BFC2F1200C01FA02F120FA0CFC36
:10062800DCBF41EA0C019040E41AA2BF01EB04517F
:10063800294330BD6FEA04041F3C1CDA0C340EDC7D
:1006480004F11404C4F1200220FA04F001FA02F3C0
:1006580040EA030021FA04F345EA030130BDC4F17E
:100668000C04C4F1200220FA02F001FA04F340EA73
:100678000300294630BD21FA04F0294630BD94F024
:10068800000F83F4801306BF81F480110134013D0B
:100698004EE77FEA645C18BF7FEA655C29D094EA7C
:1006A800050F08BF90EA020F05D054EA000C04BFFA
:1006B8001946104630BD91EA030F1EBF00210020E5
:1006C80030BD5FEA545C05D14000494128BF41F084
:1006D800004130BD14F580043CBF01F5801130BDE8
:1006E80001F0004545F0FE4141F470014FF0000073
:1006F80030BD7FEA645C1ABF194610467FEA655C24
:100708001CBF0B46024650EA013406BF52EA0335C5
:1007180091EA030F41F4002130BD00BF90F0000FB3
:1007280004BF0021704730B54FF4806404F13204EF
:100738004FF000054FF0000150E700BF90F0000FA8
:1007480004BF0021704730B54FF4806404F13204CF
:1007580010F0004548BF40424FF000013EE700BF9F
:1007680042004FEAE2014FEA31014FEA02701FBF2F
:1007780012F07F4393F07F4F81F06051704732F061
:100788007F4208BF704793F07F4F04BF41F40021B8
:10079800704730B54FF4607401F0004521F0004116
:1007A8001CE700BF50EA010208BF704730B54FF0A0
:1007B80000050AE050EA010208BF704730B511F0A1
:1007C800004502D5404261EB41014FF4806404F1D9
:1007D80032045FEA915C3FF4D8AE4FF003025FEA5F
:1007E800DC0C18BF03325FEADC0C18BF033202EBE3
:1007F800DC02C2F1200300FA03FC20FA02F001FA3D
:1008080003FE40EA0E0021FA02F11444BDE600BFDF
:100818004A0011D212F5001211D20DD56FF4787377
:10082800B3EB62520ED44FEAC12343F0004343EACC
:10083800505323FA02F070474FF00000704750EA17
:10084800013002D14FF0FF3070474FF00000704781
:1008580080B483B000AF0346FB800D4B4FF4807229
:100868005A610B4B4FF400725A610A4AFB88D360F5
:10087800074B80225A61064B80221A61044B4FF4C1
:1008880000721A6100BF0C37BD4680BC704700BFBC
:1008980000100140000C014080B483B000AF034653
:1008A800FB800D4B4FF480721A610B4B4FF40072B2
:1008B8005A610A4AFB88D360074B80225A61064B6B
:1008C80080221A61044B4FF400721A6100BF0C3782
:1008D800BD4680BC704700BF00100140000C0140BD
:1008E80080B582B000AF1D4B4FF088321A601B4BA9
:1008F8004FF088325A60194B0022DA60184B4FF4D7
:1009080080721A61164B4FF400725A61144B4022E0
:100918005A61144B9B8848F68912934202D10120F0
:1009280006F0DAFF0D4B9B68FB800D4B40221A61E5
:100938000B4B4FF400721A61084B4FF033321A60B8
:10094800064B4FF033325A60044B4FF6FF72DA60B1
:10095800FB8818460837BD4680BD00BF000C014023
:1009680000100140CC10002080B582B000AF0346D3
:100978000A46FB801346BB80FB881846FFF768FFD2
:100988000C4B4FF480721A610A4B4FF400725A6193
:10099800094ABB88D360074B80225A61054B8022E5
:1009A8001A61044B4FF400721A6100BF0837BD4644
:1009B80080BD00BF00100140000C014080B582B02E
:1009C80000AF0346FB80FB881846FFF741FFFFF79F
:1009D80087FF034618460837BD4680BD80B500AF7F
:1009E800034B1B891846FFF733FF00BF80BD00BFCC
:1009F800CC10002080B582B000AF03460A46FB80C9
:100A08001346BB80734B9B8849F24132934205D011
:100A1800704B9B8845F21032934264D16D4B5B89D1
:100A28001846FFF715FF6C4B4FF480721A616A4B3A
:100A38004FF400725A61FB881B0A9AB2674BDA605E
:100A4800654B80225A61644B80221A61624B4FF4D5
:100A580000721A61604B4FF480721A615E4B4FF45A
:100A680000725A61FB885D4ADBB2D3605A4B802220
:100A78005A61594B80221A61574B4FF400721A6120
:100A8800544B9B891846FFF7E3FE534B4FF4807293
:100A98001A61514B4FF400725A61BB881B0A9AB213
:100AA8004E4BDA604C4B80225A614B4B80221A61C4
:100AB800494B4FF400721A61474B4FF480721A6128
:100AC800454B4FF400725A61BB88444ADBB2D3608D
:100AD800414B80225A61404B80221A613E4B4FF4B1
:100AE80000721A6148E23B4B9B8846F60402934227
:100AF80076D1384B9B79012B06D1364B1A88FB8867
:100B0800D31A9BB2013BFB80324B5B891846FFF737
:100B18009FFE314B4FF480721A612F4B4FF40072D5
:100B28005A61FB881B0A9AB22C4BDA602A4B802246
:100B38005A61294B80221A61274B4FF400721A61BF
:100B4800254B4FF480721A61234B4FF400725A619F
:100B5800FB88224ADBB2D3601F4B80225A611E4BAE
:100B680080221A611C4B4FF400721A61194B9B8941
:100B78001846FFF76DFE184B4FF480721A61164B3A
:100B88004FF400725A61BB881B0A9AB2134BDA60A1
:100B9800114B80225A61104B80221A610E4B4FF480
:100BA80000721A610C4B4FF480721A610A4B4FF4B1
:100BB80000725A61BB88094ADBB2D360064B8022B7
:100BC8005A61054B80221A61034B4FF400721A6177
:100BD800D2E100BFCC10002000100140000C014001
:100BE800994B9B8841F66312934240F03381964BB0
:100BF8009B79002B63D1944B1A88FB88D31A9BB23C
:100C0800013BFB80904B5B891846FFF721FE8F4B19
:100C18004FF480721A618D4B4FF400725A618C4BFD
:100C28000022DA60894B80225A61884B80221A613F
:100C3800864B4FF400721A61844B4FF480721A612C
:100C4800824B4FF400725A61814B0022DA607F4B6D
:100C580080225A617D4B80221A617C4B4FF40072CE
:100C68001A617A4B4FF480721A61784B4FF4007214
:100C78005A61FB881B0A9AB2754BDA60734B802263
:100C88005A61724B80221A61704B4FF400721A61DC
:100C98006E4B4FF480721A616C4B4FF400725A61BC
:100CA800FB886B4ADBB2D360684B80225A61674B82
:100CB80080221A61654B4FF400721A6161E0624B41
:100CC8005B891846FFF7C4FD604B4FF480721A61C8
:100CD8005E4B4FF400725A61FB881B0A9AB25C4B58
:100CE800DA605A4B80225A61584B80221A61574B5E
:100CF8004FF400721A61554B4FF480721A61534BCE
:100D08004FF400725A61FB88514ADBB2D3604F4BF3
:100D180080225A614D4B80221A614C4B4FF400726D
:100D28001A614A4B4FF480721A61484B4FF40072B3
:100D38005A61454B1B88013B1A12454BDA60434BFD
:100D480080225A61414B80221A61404B4FF4007255
:100D58001A613E4B4FF480721A613C4B4FF400729B
:100D68005A61394B1B88013B394ADBB2D360374B98
:100D780080225A61354B80221A61344B4FF400723D
:100D88001A61314B9B891846FFF762FD2F4B4FF4D0
:100D980080721A612D4B4FF400725A61BB881B0A8E
:100DA8009AB22B4BDA60294B80225A61274B80225A
:100DB8001A61264B4FF400721A61244B4FF480726B
:100DC8001A61224B4FF400725A61BB88204ADBB289
:100DD800D3601E4B80225A611C4B80221A611B4B28
:100DE8004FF400721A61194B4FF480721A61174B55
:100DF8004FF400725A61144B5B88013B1A12144B72
:100E0800DA60124B80225A61104B80221A610F4B14
:100E18004FF400721A610D4B4FF480721A610B4B3C
:100E28004FF400725A61084B5B88013B084ADBB2F9
:100E3800D360064B80225A61044B80221A61034B0F
:100E48004FF400721A6197E0CC10002000100140A6
:100E5800000C01404A4B9B8845F21052934272D1D4
:100E6800474B5B891846FFF7F3FC464B4FF48072FB
:100E78001A61444B4FF400725A61FB881B0A9AB2FC
:100E8800414BDA603F4B80225A613E4B80221A6107
:100E98003C4B4FF400721A61394B5B8901339BB2AA
:100EA8001846FFF7D5FC374B4FF480721A61354B63
:100EB8004FF400725A61FB88334ADBB2D360314B7E
:100EC80080225A612F4B80221A612E4B4FF40072F8
:100ED8001A612B4B9B891846FFF7BAFC294B4FF434
:100EE80080721A61274B4FF400725A61BB881B0A43
:100EF8009AB2254BDA60234B80225A61214B80221B
:100F08001A61204B4FF400721A611D4B9B89013303
:100F18009BB21846FFF79CFC1A4B4FF480721A617B
:100F2800184B4FF400725A61BB88174ADBB2D36082
:100F3800144B80225A61134B80221A61114B4FF4D3
:100F480000721A6118E00E4B9B79012B06D10C4BED
:100F58001A88FB88D31A9BB2013BFB80084B5B893C
:100F6800FA8811461846FFF7FFFC054B9B89BA889B
:100F780011461846FFF7F8FC00BF0837BD4680BD8C
:100F8800CC10002000100140000C014080B584B056
:100F980000AF0346FB710023FB810023BB81784B24
:100FA8009B79012B0BD1764B9B8846F60402934222
:100FB80005D0734B9B8841F66312934209D1704B5D
:100FC8009B79002B34D16E4B9B8841F66312934278
:100FD8002ED1FB79072B2CD801A252F823F000BFA1
:100FE800091000080F100008151000081B10000851
:100FF80021100008271000082D10000833100008E1
:101008000623FB7115E00723FB7112E00423FB7133
:101018000FE00523FB710CE00123FB7109E00023BD
:10102800FB7106E00323FB7103E00223FB7100E080
:1010380000BF534B9B8849F24132934218D0504B22
:101048009B8846F60402934212D04D4B9B8845F28A
:10105800103293420CD04A4B9B8845F2105293426F
:1010680006D0474B9B8841F66312934240F04F826B
:10107800FB79072B35D801A252F823F0EB100008B2
:10108800A5100008AF100008B9100008C310000828
:10109800CD100008D7100008E1100008FB8943F0C4
:1010A8008003FB811DE0FB8943F04003FB8118E0CE
:1010B800FB8943F0C003FB8113E0FB8943F0200365
:1010C800FB810EE0FB8943F06003FB8109E0FB89AB
:1010D80043F0A003FB8104E0FB8943F0E003FB81BC
:1010E80000BF274B9B8845F21052934203D14FF41F
:1010F8005853BB8101E03623BB81214B9B8845F2C5
:10110800103293420FD01E4B9B8845F210529342E7
:1011180009D01B4B9B8841F66312934203D0FB898D
:1011280043F00803FB81164B9B8846F60402934262
:1011380003D1FB8943F00203FB81FA89BB8911467D
:101148001846FFF711FC0E4B9B8841F66312934239
:1011580028D0FB8903F02003002B13D0084B1A88F2
:10116800074B5B889A421DD2054B1B887B81044B39
:101178005A88034B1A80024A7B89538012E000BFC9
:10118800CC1000207F4B1A887E4B5B889A4209D985
:101198007C4B1B887B817B4B5A887A4B1A80794A17
:1011A8007B895380774B9B8845F21052934240F0DD
:1011B800EF80744B5B891846FFF74AFB724B4FF47C
:1011C80080721A61704B4FF400725A616F4B0022A3
:1011D800DA606D4B80225A616B4B80221A616A4B30
:1011E8004FF400721A61674B5B8901339BB2184652
:1011F800FFF72EFB644B4FF480721A61624B4FF479
:1012080000725A61614B0022DA605F4B80225A619A
:101218005D4B80221A615C4B4FF400721A61594B86
:101228005B8902339BB21846FFF712FB564B4FF40B
:1012380080721A61544B4FF400725A61514B1B88EB
:10124800013B1A12514BDA604F4B80225A614E4BC8
:1012580080221A614C4B4FF400721A61494B5B892A
:1012680003339BB21846FFF7F3FA474B4FF48072EB
:101278001A61454B4FF400725A61424B1B88013B7F
:10128800424ADBB2D360404B80225A613E4B8022F7
:101298001A613D4B4FF400721A613A4B9B8918460C
:1012A800FFF7D6FA384B4FF480721A61364B4FF479
:1012B80000725A61354B0022DA60334B80225A6142
:1012C800314B80221A61304B4FF400721A612D4B5A
:1012D8009B8901339BB21846FFF7BAFA2A4B4FF4A1
:1012E80080721A61284B4FF400725A61274B002212
:1012F800DA60254B80225A61234B80221A61224BE7
:101308004FF400721A611F4B9B8902339BB2184637
:10131800FFF79EFA1C4B4FF480721A611A4B4FF478
:1013280000725A61174B5B88013B1A12174BDA603F
:10133800154B80225A61144B80221A61124B4FF4CC
:1013480000721A610F4B9B8903339BB21846FFF753
:101358007FFA0D4B4FF480721A610B4B4FF40072F9
:101368005A61084B5B88013B084ADBB2D360064BE5
:1013780080225A61044B80221A61034B4FF4007299
:101388001A610BE1CC10002000100140000C014054
:10139800844B5B891846FFF75BFA834B4FF48072E6
:1013A8001A61814B4FF400725A61804B0022DA6057
:1013B8007D4B80225A617C4B80221A617A4B4FF414
:1013C80000721A61784B4FF480721A61764B4FF4B1
:1013D80000725A61754B0022DA60734B80225A61A1
:1013E800714B80221A61704B4FF400721A616E4B78
:1013F8004FF480721A616C4B4FF400725A61694B5A
:101408001B88013B1A12694BDA60674B80225A61CC
:10141800654B80221A61644B4FF400721A61624B6B
:101428004FF480721A61604B4FF400725A615D4B41
:101438001B88013B5D4ADBB2D3605B4B80225A615B
:10144800594B80221A61584B4FF400721A61554B60
:101458009B891846FFF7FCF9534B4FF480721A61C9
:10146800514B4FF400725A61504B0022DA604E4BD8
:1014780080225A614C4B80221A614B4B4FF4007208
:101488001A61494B4FF480721A61474B4FF400724E
:101498005A61464B0022DA60434B80225A61424B24
:1014A80080221A61404B4FF400721A613E4B4FF490
:1014B80080721A613C4B4FF400725A61394B5B8859
:1014C800013B1A12394BDA60374B80225A61364B8E
:1014D80080221A61344B4FF400721A61324B4FF478
:1014E80080721A61304B4FF400725A612D4B5B8841
:1014F800013B2E4ADBB2D3602B4B80225A612A4B28
:1015080080221A61284B4FF400721A6146E0FB7979
:10151800072B36D801A252F823F000BF4515000862
:101528004F150008591500088B15000863150008A9
:101538006D1500087715000881150008FB8943F030
:101548003003FB811DE0FB8943F01003FB8118E0A9
:10155800FB8943F02003FB8113E0FB8943F0380348
:10156800FB810EE0FB8943F02803FB8109E0FB893E
:1015780043F01803FB8104E0FB8943F00803FB8177
:1015880000BF0323BB81FB8943F48053FB81FA89A5
:10159800BB8911461846FFF7E7F900BF00BF1037AF
:1015A800BD4680BDCC10002000100140000C014059
:1015B80080B582B000AF0346FB800B46BB80134664
:1015C8007B80754B9B8849F24132934205D0724B20
:1015D8009B8845F21032934264D16F4B5B89184661
:1015E800FFF736F96D4B4FF480721A616B4B4FF46D
:1015F80000725A61FB881B0A9AB2694BDA60674B22
:1016080080225A61654B80221A61644B4FF4007244
:101618001A61624B4FF480721A61604B4FF400728A
:101628005A61FB885E4ADBB2D3605C4B80225A6108
:101638005A4B80221A61594B4FF400721A61564B6B
:101648009B891846FFF704F9544B4FF480721A61CE
:10165800524B4FF400725A61BB881B0A9AB2504B26
:10166800DA604E4B80225A614C4B80221A614B4BF8
:101678004FF400721A61494B4FF480721A61474B5C
:101688004FF400725A61BB88454ADBB2D360434BC2
:1016980080225A61414B80221A61404B4FF40072FC
:1016A8001A61E6E13C4B9B8845F21052934279D18E
:1016B800394B5B891846FFF7CBF8384B4FF48072EB
:1016C8001A61364B4FF400725A61FB881B0A9AB2B2
:1016D800334BDA60314B80225A61304B80221A61D9
:1016E8002E4B4FF400721A612B4B5B8901339BB26E
:1016F8001846FFF7ADF8294B4FF480721A61274B53
:101708004FF400725A61FB88254ADBB2D360234B41
:1017180080225A61214B80221A61204B4FF40072BB
:101728001A611D4B9B891846FFF792F81B4B4FF423
:1017380080721A61194B4FF400725A61BB881B0AF8
:101748009AB2174BDA60154B80225A61134B8022EC
:101758001A61124B4FF400721A610F4B9B890133C7
:101768009BB21846FFF774F80C4B4FF480721A615D
:101778000A4B4FF400725A61BB88094ADBB2D36046
:10178800064B80225A61054B80221A61034B4FF4A5
:1017980000721A616DE100BFCC10002000100140FA
:1017A800000C0140684B9B8841F66312934240F05D
:1017B800D180654B9B79002B06D1634B1A88FB8837
:1017C800D31A9BB2013BFB805F4B5B891846FFF73E
:1017D8003FF85E4B4FF480721A615C4B4FF4007215
:1017E8005A61FB881B0A9AB2594BDA60574B802220
:1017F8005A61564B80221A61544B4FF400721A6199
:10180800524B4FF480721A61504B4FF400725A6178
:10181800FB884F4ADBB2D3604C4B80225A614B4B5A
:1018280080221A61494B4FF400721A61474B4FF4FA
:1018380080721A61454B4FF400725A61FB881B0A8B
:101848009AB2434BDA60414B80225A613F4B802267
:101858001A613E4B4FF400721A613C4B4FF4807290
:101868001A613A4B4FF400725A61FB88384ADBB26E
:10187800D360364B80225A61344B80221A61334B35
:101888004FF400721A61304B9B891846FEF7E0FF4F
:101898002E4B4FF480721A612C4B4FF400725A6130
:1018A800BB881B0A9AB22A4BDA60284B80225A61FD
:1018B800264B80221A61254B4FF400721A61234B84
:1018C8004FF480721A61214B4FF400725A61BB8841
:1018D8001F4ADBB2D3601D4B80225A611B4B80220A
:1018E8001A611A4B4FF400721A61184B4FF4807248
:1018F8001A61164B4FF400725A61BB881B0A9AB2E0
:10190800134BDA60114B80225A61104B80221A6106
:101918000E4B4FF400721A610C4B4FF480721A612F
:101928000A4B4FF400725A61BB88094ADBB2D36094
:10193800064B80225A61054B80221A61034B4FF4F3
:1019480000721A6195E000BFCC1000200010014021
:10195800000C01405E4B9B8846F6040293426FD10F
:101968005B4B9B79012B06D1594B1A88FB88D31AFC
:101978009BB2013BFB80564B5B891846FEF768FF1C
:10198800544B4FF480721A61524B4FF400725A61F3
:10199800FB881B0A9AB2504BDA604E4B80225A6180
:1019A8004C4B80221A614B4B4FF400721A61494B21
:1019B8004FF480721A61474B4FF400725A61FB88EA
:1019C800454ADBB2D360434B80225A61414B8022A7
:1019D8001A61404B4FF400721A613D4B9B891846BF
:1019E800FEF736FF3B4B4FF480721A61394B4FF4C8
:1019F80000725A61BB881B0A9AB2374BDA60354BC2
:101A080080225A61334B80221A61324B4FF40072A4
:101A18001A61304B4FF480721A612E4B4FF40072EA
:101A28005A61BB882C4ADBB2D3602A4B80225A61A8
:101A3800284B80221A61274B4FF400721A6118E074
:101A4800234B9B79012B06D1214B1A88FB88D31A8B
:101A58009BB2013BFB801E4B5B89FA8811461846F6
:101A6800FEF782FF1A4B9B89BA8811461846FEF783
:101A78007BFF184B4FF480725A61164B4FF400727B
:101A88005A61134B1A89144BDA60124B80225A613F
:101A9800104B80221A610F4B4FF400721A610D4BE4
:101AA8004FF480721A610B4B4FF400725A610A4A64
:101AB8007B88D360074B80225A61064B80221A61CB
:101AC800044B4FF400721A6100BF0837BD4680BD51
:101AD800CC10002000100140000C01400000000064
:101AE80090B583B000AF0346FB71BE20FEF7B0FE91
:101AF8004B4B4FF480721A61494B4FF400725A6194
:101B0800484B0522DA60464B80225A61444B8022BA
:101B18001A61434B4FF400721A61414B4FF48072C3
:101B28001A613F4B4FF400725A61FB791846FEF771
:101B380005FE39A3D3E90023FEF784FB02460B46D2
:101B4800384C10461946FEF763FE0346E360344BF3
:101B580080225A61324B80221A61314B4FF4007255
:101B68001A612F4B4FF480721A612D4B4FF400729B
:101B78005A612C4B0122DA60294B80225A61284B8A
:101B880080221A61264B4FF400721A61244B4FF4DD
:101B980080721A61224B4FF400725A61214BFF2266
:101BA800DA601F4B80225A611D4B80221A611C4B40
:101BB8004FF400721A611A4B4FF480721A61184B75
:101BC8004FF400725A61174B0022DA60144B8022DE
:101BD8005A61134B80221A61114B4FF400721A613B
:101BE8000F4B4FF480721A610D4B4FF400725A611B
:101BF8000C4B0022DA600A4B80225A61084B802283
:101C08001A61074B4FF400721A6100BF0C37BD46CA
:101C180090BD00BFAFF300806666666666660440E6
:101C280000100140000C014080B582B000AF0346AF
:101C3800FB71FB79002B77D1804B00229A717F4B87
:101C4800F0221A807D4B4FF4A0725A807B4B9B8800
:101C580049F2413293420BD0784B9B8846F60402F6
:101C6800934205D0754B9B8845F2103293421ED1A2
:101C7800724B2C221A81714B2A225A816F4B2B22CC
:101C88009A816E4B9B8846F60402934206D06B4BB2
:101C98009B8845F21032934240F0C780674B4FF45F
:101CA800A0721A80654B4FF4F0725A80BDE0634B06
:101CB8009B8845F21052934214D1604B4FF4305236
:101CC8001A815E4B4FF428525A815C4B4FF42C52C8
:101CD8009A815A4B4FF4F0721A80584B4FF448725D
:101CE8005A80A3E0554B9B8841F66312934211D169
:101CF800524B2C221A81514B2B225A814F4B2A22AC
:101D08009A814E4B4FF4F0721A804C4B4FF4487244
:101D18005A808BE0494B22221A81484B20225A8153
:101D2800464B21229A8181E0444B01229A71434B10
:101D38004FF4A0721A80414BF0225A803F4B9B8887
:101D480049F24132934205D03C4B9B8845F2103210
:101D5800934209D1394B2C221A81384B2A225A81B5
:101D6800364B2B229A814BE0344B9B8846F6040273
:101D7800934209D1314B2C221A81304B2B225A81A4
:101D88002E4B2A229A813BE02C4B9B8845F210521D
:101D9800934214D1294B4FF430521A81274B4FF4F8
:101DA80028525A81254B4FF42C529A81234B4FF4D9
:101DB80048721A80214B4FF4F0725A8020E01F4B72
:101DC8009B8841F66312934211D11C4B2C221A8135
:101DD8001A4B2A225A81194B2B229A81174B4FF4FE
:101DE80048721A80154B4FF4F0725A8008E0134B72
:101DF80022221A81114B21225A81104B20229A81CA
:101E08000E4B9B8846F60402934205D00B4B9B88E9
:101E180045F21032934209D1084B4FF4F0721A8000
:101E2800064B4FF4A0725A8000E000BF0020FFF775
:101E3800ADF800BF0837BD4680BD00BFCC100020FC
:101E480080B586B000AF904B9B698F4A43F008037A
:101E580093618D4B9B6903F008037B607B688A4B19
:101E68009B69894A43F010039361874B9B6903F090
:101E780010033B603B684FF4F863BB600123FB60D1
:101E880001233B6103237B6107F1080319467F485F
:101E980006F0D6FA4FF6FF73BB6007F10803194640
:101EA8007B4806F0CDFA322005F016FD012100200E
:101EB800FEF75AFD322005F00FFD0020FEF77EFDEB
:101EC80003461A46734B9A80724B9B88FE2B0BD99C
:101ED800704B9B884FF6FF72934205D06D4B9B88E1
:101EE800B3F5134F40F0C880D320FEF7B1FCFEF7DE
:101EF800F7FCFEF7F5FCFEF7F3FC03461A46654BC4
:101F08009A80644B9B881B029AB2624B9A80FEF7B8
:101F1800E7FC03461A465F4B9B8813439AB25D4B16
:101F28009A805C4B9B8849F24132934200F0A4802E
:101F3800BF20FEF78DFCFEF7D3FCFEF7D1FCFEF7C1
:101F4800CFFCFEF7CDFC03461A46524B9A80514B04
:101F58009B881B029AB24F4B9A80FEF7C1FC03463E
:101F68001A464C4B9B8813439AB24A4B9A80494B6A
:101F78009B8846F6040293427ED0D420FEF768FC84
:101F8800FEF7AEFCFEF7ACFCFEF7AAFC03461A46C9
:101F9800404B9A803F4B9B881B029AB23D4B9A80DC
:101FA800FEF79EFC03461A463A4B9B8813439AB2A7
:101FB800384B9A80374B9B8845F2103293425BD05E
:101FC8004FF45A40FEF744FCFEF78AFC4FF45B409E
:101FD800FEF73EFCFEF784FC03461A462D4B9A801A
:101FE8002C4B9B881B029AB22A4B9A804FF45C4078
:101FF800FEF72EFCFEF774FC03461A46254B9B8819
:1020080013439AB2234B9A80224B9B88B3F5004F17
:1020180003D1204B45F210529A801E4B9B8845F203
:102028001052934228D0A120FEF712FCFEF758FC6C
:1020380003461A46174B9A80FEF752FC03461A4687
:10204800144B9A80134B9B881B029AB2114B9A80AF
:10205800FEF746FC03461A460E4B9B8813439AB27A
:102068000C4B9A800B4B9B8845F26172934203D1CB
:10207800084B41F663129A80064B9B8849F241321D
:10208800934240F01F8107E0001002400010014019
:10209800000C0140CC100020CF20FEF7D9FB002017
:1020A800FEF7FAFBC120FEF7F7FB3020FEF7F4FB42
:1020B800ED20FEF7CDFB6420FEF7EEFB0320FEF7D4
:1020C800EBFB1220FEF7E8FB8120FEF7E5FBE8209A
:1020D800FEF7BEFB8520FEF7DFFB1020FEF7DCFBDA
:1020E8007A20FEF7D9FBCB20FEF7B2FB3920FEF7AA
:1020F800D3FB2C20FEF7D0FB0020FEF7CDFB3420CD
:10210800FEF7CAFB0220FEF7C7FBF720FEF7A0FB8D
:102118002020FEF7C1FBEA20FEF79AFB0020FEF71D
:10212800BBFB0020FEF7B8FBC020FEF791FB1B208D
:10213800FEF7B2FBC120FEF78BFB0120FEF7ACFBDC
:10214800C520FEF785FB3020FEF7A6FB3020FEF702
:10215800A3FBC720FEF77CFBB720FEF79DFB3620CC
:10216800FEF776FB4820FEF797FB3A20FEF770FB58
:102178005520FEF791FBB120FEF76AFB0020FEF721
:102188008BFB1A20FEF788FBB620FEF761FB0A20BE
:10219800FEF782FBA220FEF77FFBF220FEF758FB3A
:1021A8000020FEF779FB2620FEF752FB0120FEF700
:1021B80073FBE020FEF74CFB0F20FEF76DFB2A2097
:1021C800FEF76AFB2820FEF767FB0820FEF764FB92
:1021D8000E20FEF761FB0820FEF75EFB5420FEF799
:1021E8005BFBA920FEF758FB4320FEF755FB0A20AE
:1021F800FEF752FB0F20FEF74FFB0020FEF74CFBCB
:102208000020FEF749FB0020FEF746FB0020FEF702
:1022180043FBE120FEF71CFB0020FEF73DFB1520E9
:10222800FEF73AFB1720FEF737FB0720FEF734FBD3
:102238001120FEF731FB0620FEF72EFB2B20FEF7C0
:102248002BFB5620FEF728FB3C20FEF725FB05203C
:10225800FEF722FB1020FEF71FFB0F20FEF71CFBEA
:102268003F20FEF719FB3F20FEF716FB0F20FEF775
:1022780013FB2B20FEF7ECFA0020FEF70DFB0020E5
:10228800FEF70AFB0120FEF707FB3F20FEF704FBE1
:102298002A20FEF7DDFA0020FEF7FEFA0020FEF7FE
:1022A800FBFA0020FEF7F8FAEF20FEF7F5FA112006
:1022B800FEF7CEFA782005F00FFB2920FEF7C8FAC2
:1022C80003F0D8BC584B9B8846F60402934240F072
:1022D800AD801120FEF7BCFA142005F0FDFAD020DD
:1022E800FEF7B6FA0720FEF7D7FA4220FEF7D4FA2F
:1022F8001D20FEF7D1FAD120FEF7AAFA0020FEF73A
:10230800CBFA1A20FEF7C8FA0920FEF7C5FAD22040
:10231800FEF79EFA0120FEF7BFFA2220FEF7BCFA6C
:10232800C020FEF795FA1020FEF7B6FA3B20FEF71C
:10233800B3FA0020FEF7B0FA0220FEF7ADFA11203A
:10234800FEF7AAFAC520FEF783FA0320FEF7A4FADF
:10235800C820FEF77DFA0020FEF79EFA2520FEF73A
:102368009BFA2120FEF798FA0520FEF795FA00203F
:10237800FEF792FA0A20FEF78FFA6520FEF78CFA2C
:102388002520FEF789FA7720FEF786FA5020FEF717
:1023980083FA0F20FEF780FA0020FEF77DFAF82076
:1023A800FEF756FA0120FEF777FAFE20FEF750FAFC
:1023B8000020FEF771FA0220FEF76EFA2020FEF7E1
:1023C80047FA3620FEF744FA0820FEF765FA3A2065
:1023D800FEF73EFA5520FEF75FFA2B20FEF738FA93
:1023E8000020FEF759FA0020FEF756FA0120FEF702
:1023F80053FA3F20FEF750FA2A20FEF729FA002068
:10240800FEF74AFA0020FEF747FA0120FEF744FAE1
:10241800DF20FEF741FA782005F05EFA2920FEF762
:1024280017FA03F027BC00BFCC100020034B9B8891
:1024380045F21032934240F07C8701E0CC10002036
:10244800ED20FEF705FA0120FEF726FAFE20FEF73A
:1024580023FAEE20FEF7FCF9DE20FEF71DFA212014
:10246800FEF71AFAF120FEF7F3F90120FEF714FA45
:10247800DF20FEF7EDF91020FEF70EFAC420FEF774
:10248800E7F98F20FEF708FAC620FEF7E1F90020E9
:10249800FEF702FAE220FEF7FFF9E220FEF7FCF968
:1024A800E220FEF7F9F9BF20FEF7D2F9AA20FEF7DD
:1024B800F3F9B020FEF7CCF90D20FEF7EDF9002076
:1024C800FEF7EAF90D20FEF7E7F90020FEF7E4F938
:1024D8001120FEF7E1F90020FEF7DEF91920FEF7DA
:1024E800DBF90020FEF7D8F92120FEF7D5F9002006
:1024F800FEF7D2F92D20FEF7CFF90020FEF7CCF930
:102508003D20FEF7C9F90020FEF7C6F95D20FEF769
:10251800C3F90020FEF7C0F95D20FEF7BDF90020E1
:10252800FEF7BAF9B120FEF793F98020FEF7B4F967
:102538000020FEF7B1F98B20FEF7AEF90020FEF778
:10254800ABF99620FEF7A8F90020FEF7A5F9B2200E
:10255800FEF77EF90020FEF79FF90020FEF79CF9B0
:102568000220FEF799F90020FEF796F90320FEF7FE
:1025780093F90020FEF790F9B320FEF769F90020DF
:10258800FEF78AF90020FEF787F90020FEF784F9A4
:102598000020FEF781F90020FEF77EF90020FEF703
:1025A8007BF90020FEF778F90020FEF775F9002086
:1025B800FEF772F90020FEF76FF90020FEF76CF9BC
:1025C8000020FEF769F90020FEF766F90020FEF703
:1025D80063F90020FEF760F90020FEF75DF900209E
:1025E800FEF75AF90020FEF757F90020FEF754F9D4
:1025F8000020FEF751F90020FEF74EF90020FEF703
:102608004BF90020FEF748F90020FEF745F9B42001
:10261800FEF71EF98B20FEF73FF90020FEF73CF984
:102628009620FEF739F90020FEF736F9A120FEF7CB
:1026380033F90020FEF730F9B520FEF709F902203A
:10264800FEF72AF90020FEF727F90320FEF724F900
:102658000020FEF721F90420FEF71EF90020FEF7FE
:102668001BF9B620FEF7F4F80020FEF715F9002054
:10267800FEF712F9B720FEF7EBF80020FEF70CF989
:102688000020FEF709F93F20FEF706F90020FEF7C3
:1026980003F95E20FEF700F90020FEF7FDF864203C
:1026A800FEF7FAF80020FEF7F7F88C20FEF7F4F8AA
:1026B8000020FEF7F1F8AC20FEF7EEF80020FEF758
:1026C800EBF8DC20FEF7E8F80020FEF7E5F87020CC
:1026D800FEF7E2F80020FEF7DFF89020FEF7DCF8BE
:1026E8000020FEF7D9F8EB20FEF7D6F80020FEF719
:1026F800D3F8DC20FEF7D0F80020FEF7CDF8B8209C
:10270800FEF7A6F80020FEF7C7F80020FEF7C4F889
:102718000020FEF7C1F80020FEF7BEF80020FEF703
:10272800BBF80020FEF7B8F80020FEF7B5F8002047
:10273800FEF7B2F8BA20FEF78BF82420FEF7ACF8C3
:102748000020FEF7A9F80020FEF7A6F80020FEF703
:10275800A3F8C120FEF77CF82020FEF79DF80020A2
:10276800FEF79AF85420FEF797F80020FEF794F841
:10277800FF20FEF791F80020FEF78EF8C220FEF742
:1027880067F80A20FEF788F80020FEF785F804208D
:10279800FEF782F80020FEF77FF8C320FEF758F80E
:1027A8003C20FEF779F80020FEF776F83A20FEF78D
:1027B80073F80020FEF770F83920FEF76DF8002056
:1027C800FEF76AF83720FEF767F80020FEF764F88E
:1027D8003C20FEF761F80020FEF75EF83620FEF791
:1027E8005BF80020FEF758F83220FEF755F8002075
:1027F800FEF752F82F20FEF74FF80020FEF74CF8AE
:102808002C20FEF749F80020FEF746F82920FEF7AD
:1028180043F80020FEF740F82620FEF73DF8002098
:10282800FEF73AF82420FEF737F80020FEF734F8D0
:102838002420FEF731F80020FEF72EF82320FEF7BB
:102848002BF80020FEF728F83C20FEF725F800209A
:10285800FEF722F83620FEF71FF80020FEF71CF8D6
:102868003220FEF719F80020FEF716F82F20FEF7A1
:1028780013F80020FEF710F82C20FEF70DF80020C2
:10288800FEF70AF82920FEF707F80020FEF704F8FB
:102898002620FEF701F80020FDF7FEFF2420FDF7B3
:1028A800FBFF0020FDF7F8FF2420FDF7F5FF0020CF
:1028B800FDF7F2FF2320FDF7EFFF0020FDF7ECFF07
:1028C800C420FDF7C5FF6220FDF7E6FF0020FDF7F5
:1028D800E3FF0520FDF7E0FF0020FDF7DDFF842082
:1028E800FDF7DAFF0020FDF7D7FFF020FDF7D4FF52
:1028F8000020FDF7D1FF1820FDF7CEFF0020FDF7DF
:10290800CBFFA420FDF7C8FF0020FDF7C5FF182066
:10291800FDF7C2FF0020FDF7BFFF5020FDF7BCFF09
:102928000020FDF7B9FF0C20FDF7B6FF0020FDF7EA
:10293800B3FF1720FDF7B0FF0020FDF7ADFF95208E
:10294800FDF7AAFF0020FDF7A7FFF320FDF7A4FF7E
:102958000020FDF7A1FFE620FDF79EFF0020FDF710
:102968009BFFC520FDF774FF3220FDF795FF00207F
:10297800FDF792FF4420FDF78FFF0020FDF78CFF45
:102988006520FDF789FF0020FDF786FF7620FDF71B
:1029980083FF0020FDF780FF8820FDF77DFF0020E2
:1029A800FDF77AFFC620FDF753FF2020FDF774FFDF
:1029B8000020FDF771FF1720FDF76EFF0020FDF7DF
:1029C8006BFF0120FDF768FF0020FDF765FFC720BA
:1029D800FDF73EFF0020FDF75FFF0020FDF75CFFDD
:1029E8000020FDF759FF0020FDF756FFC820FDF72E
:1029F8002FFF0020FDF750FF0020FDF74DFF0020BE
:102A0800FDF74AFF0020FDF747FFC920FDF720FF2B
:102A18000020FDF741FF0020FDF73EFF0020FDF7F5
:102A28003BFF0020FDF738FF0020FDF735FF0020B1
:102A3800FDF732FF0020FDF72FFF0020FDF72CFFE8
:102A48000020FDF729FF0020FDF726FF0020FDF7F5
:102A580023FF0020FDF720FF0020FDF71DFF0020C9
:102A6800FDF71AFF0020FDF717FF0020FDF714FF00
:102A7800E020FDF7EDFE1620FDF70EFF0020FDF724
:102A88000BFF1C20FDF708FF0020FDF705FF2120A4
:102A9800FDF702FF0020FDF7FFFE3620FDF7FCFEE4
:102AA8000020FDF7F9FE4620FDF7F6FE0020FDF7B1
:102AB800F3FE5220FDF7F0FE0020FDF7EDFE642046
:102AC800FDF7EAFE0020FDF7E7FE7A20FDF7E4FEB9
:102AD8000020FDF7E1FE8B20FDF7DEFE0020FDF76C
:102AE800DBFE9920FDF7D8FE0020FDF7D5FEA820D3
:102AF800FDF7D2FE0020FDF7CFFEB920FDF7CCFE92
:102B08000020FDF7C9FEC420FDF7C6FE0020FDF732
:102B1800C3FECA20FDF7C0FE0020FDF7BDFED2208F
:102B2800FDF7BAFE0020FDF7B7FED920FDF7B4FE89
:102B38000020FDF7B1FEE020FDF7AEFE0020FDF716
:102B4800ABFEF320FDF7A8FE0020FDF7A5FEE1206F
:102B5800FDF77EFE1620FDF79FFE0020FDF79CFE88
:102B68001C20FDF799FE0020FDF796FE2220FDF7B8
:102B780093FE0020FDF790FE3620FDF78DFE002025
:102B8800FDF78AFE4520FDF787FE0020FDF784FE4D
:102B98005220FDF781FE0020FDF77EFE6420FDF740
:102BA8007BFE0020FDF778FE7A20FDF775FE0020F9
:102BB800FDF772FE8B20FDF76FFE0020FDF76CFE1F
:102BC8009920FDF769FE0020FDF766FEA820FDF7B5
:102BD80063FE0020FDF760FEB920FDF75DFE0020D2
:102BE800FDF75AFEC420FDF757FE0020FDF754FEFE
:102BF800CA20FDF751FE0020FDF74EFED220FDF75A
:102C08004BFE0020FDF748FED820FDF745FE0020CA
:102C1800FDF742FEE020FDF73FFE0020FDF73CFEF9
:102C2800F320FDF739FE0020FDF736FEE220FDF720
:102C38000FFE0520FDF730FE0020FDF72DFE0B20CE
:102C4800FDF72AFE0020FDF727FE1B20FDF724FED6
:102C58000020FDF721FE3420FDF71EFE0020FDF7C1
:102C68001BFE4420FDF718FE0020FDF715FE4F203F
:102C7800FDF712FE0020FDF70FFE6120FDF70CFEA8
:102C88000020FDF709FE7920FDF706FE0020FDF77C
:102C980003FE8820FDF700FE0020FDF7FDFD9720CC
:102CA800FDF7FAFD0020FDF7F7FDA620FDF7F4FD7E
:102CB8000020FDF7F1FDB720FDF7EEFD0020FDF740
:102CC800EBFDC220FDF7E8FD0020FDF7E5FDC7207C
:102CD800FDF7E2FD0020FDF7DFFDD120FDF7DCFD6B
:102CE8000020FDF7D9FDD620FDF7D6FD0020FDF721
:102CF800D3FDDD20FDF7D0FD0020FDF7CDFDF3204D
:102D0800FDF7CAFD0020FDF7C7FDE320FDF7A0FD94
:102D18000520FDF7C1FD0020FDF7BEFD0A20FDF7E7
:102D2800BBFD0020FDF7B8FD1C20FDF7B5FD002018
:102D3800FDF7B2FD3320FDF7AFFD0020FDF7ACFD38
:102D48004420FDF7A9FD0020FDF7A6FD5020FDF762
:102D5800A3FD0020FDF7A0FD6220FDF79DFD0020EA
:102D6800FDF79AFD7820FDF797FD0020FDF794FD0B
:102D78008820FDF791FD0020FDF78EFD9720FDF7D7
:102D88008BFD0020FDF788FDA620FDF785FD0020BE
:102D9800FDF782FDB720FDF77FFD0020FDF77CFDE4
:102DA800C220FDF779FD0020FDF776FDC720FDF76D
:102DB80073FD0020FDF770FDD120FDF76DFD0020AB
:102DC800FDF76AFDD520FDF767FD0020FDF764FDDE
:102DD800DD20FDF761FD0020FDF75EFDF320FDF726
:102DE8005BFD0020FDF758FDE420FDF731FD0120D3
:102DF800FDF752FD0020FDF74FFD0120FDF74CFDCA
:102E08000020FDF749FD0220FDF746FD0020FDF7F3
:102E180043FD2A20FDF740FD0020FDF73DFD3C2045
:102E2800FDF73AFD0020FDF737FD4B20FDF734FD97
:102E38000020FDF731FD5D20FDF72EFD0020FDF798
:102E48002BFD7420FDF728FD0020FDF725FD8420CB
:102E5800FDF722FD0020FDF71FFD9320FDF71CFD67
:102E68000020FDF719FDA220FDF716FD0020FDF753
:102E780013FDB320FDF710FD0020FDF70DFDBE206A
:102E8800FDF70AFD0020FDF707FDC420FDF704FD4E
:102E98000020FDF701FDCD20FDF7FEFC0020FDF729
:102EA800FBFCD320FDF7F8FC0020FDF7F5FCDD2046
:102EB800FDF7F2FC0020FDF7EFFCF320FDF7ECFC3A
:102EC8000020FDF7E9FCE520FDF7C2FC0020FDF736
:102ED800E3FC0020FDF7E0FC0020FDF7DDFC00200E
:102EE800FDF7DAFC0220FDF7D7FC0020FDF7D4FC43
:102EF8002920FDF7D1FC0020FDF7CEFC3C20FDF792
:102F0800CBFC0020FDF7C8FC4B20FDF7C5FC0020DA
:102F1800FDF7C2FC5D20FDF7BFFC0020FDF7BCFCFF
:102F28007420FDF7B9FC0020FDF7B6FC8420FDF7FE
:102F3800B3FC0020FDF7B0FC9320FDF7ADFC0020AA
:102F4800FDF7AAFCA220FDF7A7FC0020FDF7A4FCD2
:102F5800B320FDF7A1FC0020FDF79EFCBE20FDF785
:102F68009BFC0020FDF798FCC420FDF795FC002091
:102F7800FDF792FCCD20FDF78FFC0020FDF78CFCBF
:102F8800D320FDF789FC0020FDF786FCDC20FDF747
:102F980083FC0020FDF780FCF320FDF77DFC00207A
:102FA800FDF77AFCE620FDF753FC1120FDF774FCD1
:102FB8000020FDF771FC3420FDF76EFC0020FDF7C2
:102FC8006BFC5620FDF768FC0020FDF765FC7620B9
:102FD800FDF762FC0020FDF75FFC7720FDF75CFC45
:102FE8000020FDF759FC6620FDF756FC0020FDF790
:102FF80053FC8820FDF750FC0020FDF74DFC99207C
:10300800FDF74AFC0020FDF747FCBB20FDF744FC18
:103018000020FDF741FC9920FDF73EFC0020FDF75C
:103028003BFC6620FDF738FC0020FDF735FC5520F9
:10303800FDF732FC0020FDF72FFC5520FDF72CFC96
:103048000020FDF729FC4520FDF726FC0020FDF7B0
:1030580023FC4320FDF720FC0020FDF71DFC442045
:10306800FDF71AFC0020FDF717FCE720FDF7F0FB41
:103078003220FDF711FC0020FDF70EFC5520FDF76E
:103088000BFC0020FDF708FC7620FDF705FC00206E
:10309800FDF702FC6620FDF7FFFB0020FDF7FCFBB7
:1030A8006720FDF7F9FB0020FDF7F6FB6720FDF729
:1030B800F3FB0020FDF7F0FB8720FDF7EDFB002078
:1030C800FDF7EAFB9920FDF7E7FB0020FDF7E4FB9D
:1030D800BB20FDF7E1FB0020FDF7DEFB9920FDF7A3
:1030E800DBFB0020FDF7D8FB7720FDF7D5FB0020A0
:1030F800FDF7D2FB4420FDF7CFFB0020FDF7CCFB0A
:103108005620FDF7C9FB0020FDF7C6FB2320FDF77D
:10311800C3FB0020FDF7C0FB3320FDF7BDFB0020FB
:10312800FDF7BAFB4520FDF7B7FB0020FDF7B4FB20
:10313800E820FDF78DFB0020FDF7AEFB0020FDF732
:10314800ABFB9920FDF7A8FB0020FDF7A5FB872026
:10315800FDF7A2FB0020FDF79FFB8820FDF79CFBF5
:103168000020FDF799FB7720FDF796FB0020FDF77F
:1031780093FB6620FDF790FB0020FDF78DFB882070
:10318800FDF78AFB0020FDF787FBAA20FDF784FBEB
:103198000020FDF781FBBB20FDF77EFB0020FDF73B
:1031A8007BFB9920FDF778FB0020FDF775FB662077
:1031B800FDF772FB0020FDF76FFB5520FDF76CFB58
:1031C8000020FDF769FB5520FDF766FB0020FDF7A1
:1031D80063FB4420FDF760FB0020FDF75DFB442006
:1031E800FDF75AFB0020FDF757FB5520FDF754FB70
:1031F8000020FDF751FBE920FDF72AFBAA20FDF787
:103208004BFB0020FDF748FB0020FDF745FB0020A5
:10321800FDF742FB0020FDF71BFBAA20FDF73CFB56
:10322800CF20FDF715FB0020FDF736FB0020FDF74A
:1032380033FB0020FDF730FB0020FDF72DFB0020BD
:10324800FDF72AFB0020FDF727FB0020FDF724FBF4
:103258000020FDF721FB0020FDF71EFB0020FDF7F5
:103268001BFB0020FDF718FB0020FDF715FB0020D5
:10327800FDF712FB0020FDF70FFB0020FDF70CFB0C
:103288000020FDF709FB0020FDF706FBF020FDF705
:10329800DFFA0020FDF700FB5020FDF7FDFA0020C3
:1032A800FDF7FAFA0020FDF7F7FA0020FDF7F4FA27
:1032B800F320FDF7CDFA0020FDF7EEFAF920FDF72F
:1032C800C7FA0620FDF7E8FA1020FDF7E5FA2920ED
:1032D800FDF7E2FA0020FDF7DFFA3A20FDF7B8FA29
:1032E8005520FDF7D9FA1120FDF7B2FA642004F051
:1032F800F3FA2920FDF7ACFA3520FDF7A9FA0020EA
:10330800FDF7CAFA5120FDF7A3FAFF20FDF7C4FA2A
:103318005320FDF79DFA2C20FDF7BEFA5520FDF746
:1033280097FA8220FDF7B8FA2C20FDF791FA02F0FF
:10333800A1BC044B9B8845F21052934240F082870F
:1033480002E000BFCC10002055214FF47040FDF77B
:103358000BFBAA214FF20100FDF706FB52214FF2A9
:103368000200FDF701FB08214FF20300FDF7FCFA0C
:1033780001214FF20400FDF7F7FA0D214FF4304018
:10338800FDF7F2FA0D214BF20100FDF7EDFA0D21E0
:103398004BF20200FDF7E8FA34214FF43640FDF70E
:1033A800E3FA34214BF20160FDF7DEFA34214BF2E7
:1033B8000260FDF7D9FA0D214FF43140FDF7D4FA38
:1033C8000D214BF20110FDF7CFFA0D214BF202103F
:1033D800FDF7CAFA34214FF43740FDF7C5FA342116
:1033E8004BF20170FDF7C0FA34214BF20270FDF781
:1033F800BBFA00214FF43240FDF7B6FA00214BF238
:103408000120FDF7B1FA00214BF20220FDF7ACFADA
:1034180024214FF43840FDF7A7FA24214BF6010088
:10342800FDF7A2FA24214BF60200FDF79DFA0121CF
:103438004FF43F40FDF798FA0F214FF43340FDF762
:1034480093FA0F214BF20130FDF78EFA0F214BF260
:103458000230FDF789FA34214FF43940FDF784FA38
:1034680034214BF60110FDF77FFA34214BF6021098
:10347800FDF77AFA08214FF43540FDF775FA08216F
:103488004BF20150FDF770FA08214BF20250FDF79C
:103498006BFA03214FF44240FDF766FA24214FF4FA
:1034A8003A40FDF761FA24214BF60120FDF75CFA5A
:1034B80024214BF60220FDF757FA00214FF43C4037
:1034C800FDF752FA78214BF60140FDF74DFA00213D
:1034D8004BF60240FDF748FA00214FF43D40FDF756
:1034E80043FA78214BF60150FDF73EFA00214BF6DE
:1034F8000250FDF739FA00214FF43E40FDF734FA47
:1035080064214BF60160FDF72FFA00214FF451407A
:10351800FDF72AFA33214DF20110FDF725FA0021B3
:103528004DF20210FDF720FA34214DF20310FDF799
:103538001BFA00214DF20410FDF716FA3A214DF25C
:103548000510FDF711FA00214DF20610FDF70CFAEF
:103558004A214DF20710FDF707FA00214DF2081035
:10356800FDF702FA5C214DF20910FDF7FDF9002183
:103578004DF20A10FDF7F8F981214DF20B10FDF715
:10358800F3F900214DF20C10FDF7EEF9A6214DF2EA
:103598000D10FDF7E9F900214DF20E10FDF7E4F9E1
:1035A800E5214DF20F10FDF7DFF901214DF2101062
:1035B800FDF7DAF913214DF21110FDF7D5F90121C4
:1035C8004DF21210FDF7D0F954214DF21310FDF70A
:1035D800CBF901214DF21410FDF7C6F982214DF205
:1035E8001510FDF7C1F901214DF21610FDF7BCF9D0
:1035F800CA214DF21710FDF7B7F902214DF2181044
:10360800FDF7B2F900214DF21910FDF7ADF90221CD
:103618004DF21A10FDF7A8F901214DF21B10FDF724
:10362800A3F902214DF21C10FDF79EF934214DF249
:103638001D10FDF799F902214DF21E10FDF794F9BE
:1036480067214DF21F10FDF78FF902214DF220106E
:10365800FDF78AF984214DF22110FDF785F9022141
:103668004DF22210FDF780F9A4214DF22310FDF749
:103678007BF902214DF22410FDF776F9B7214DF2BE
:103688002510FDF771F902214DF22610FDF76CF9AE
:10369800CF214DF22710FDF767F902214DF22810CE
:1036A800FDF762F9DE214DF22910FDF75DF90221DF
:1036B8004DF22A10FDF758F9F2214DF22B10FDF7C3
:1036C80053F902214DF22C10FDF74EF9FE214DF26F
:1036D8002D10FDF749F903214DF22E10FDF744F99D
:1036E80010214DF22F10FDF73FF903214DF2301054
:1036F800FDF73AF933214DF23110FDF735F9032181
:103708004DF23210FDF730F96D214DF23310FDF70F
:103718002BF900214FF45240FDF726F933214DF2E1
:103728000120FDF721F900214DF20220FDF71CF9D7
:1037380034214DF20320FDF717F900214DF2042042
:10374800FDF712F93A214DF20520FDF70DF9002198
:103758004DF20620FDF708F94A214DF20720FDF742
:1037680003F900214DF20820FDF7FEF85C214DF227
:103778000920FDF7F9F800214DF20A20FDF7F4F8C9
:1037880081214DF20B20FDF7EFF800214DF20C20BE
:10379800FDF7EAF8A6214DF20D20FDF7E5F8002126
:1037A8004DF20E20FDF7E0F8E5214DF20F20FDF770
:1037B800DBF801214DF21020FDF7D6F813214DF268
:1037C8001120FDF7D1F801214DF21220FDF7CCF8B8
:1037D80054214DF21320FDF7C7F801214DF21420B2
:1037E800FDF7C2F882214DF21520FDF7BDF8012141
:1037F8004DF21620FDF7B8F8CA214DF21720FDF753
:10380800B3F802214DF21820FDF7AEF800214DF271
:103818001920FDF7A9F802214DF21A20FDF7A4F8A6
:1038280001214DF21B20FDF79FF802214DF21C20CB
:10383800FDF79AF834214DF21D20FDF795F8022185
:103848004DF21E20FDF790F867214DF21F20FDF77D
:103858008BF802214DF22020FDF786F884214DF2E5
:103868002120FDF781F802214DF22220FDF77CF896
:10387800A4214DF22320FDF777F802214DF22420F0
:10388800FDF772F8B7214DF22520FDF76DF80221FA
:103898004DF22620FDF768F8CF214DF22720FDF7DD
:1038A80063F802214DF22820FDF75EF8DE214DF283
:1038B8002920FDF759F802214DF22A20FDF754F886
:1038C800F2214DF22B20FDF74FF802214DF22C206A
:1038D800FDF74AF8FE214DF22D20FDF745F80321AA
:1038E8004DF22E20FDF740F810214DF22F20FDF764
:1038F8003BF803214DF23020FDF736F833214DF225
:103908003120FDF731F803214DF23220FDF72CF874
:103918006D214DF23320FDF727F800214FF4534075
:10392800FDF722F833214DF20130FDF71DF8002193
:103938004DF20230FDF718F834214DF20330FDF74F
:1039480013F800214DF20430FDF70EF83A214DF23C
:103958000530FDF709F800214DF20630FDF704F8AF
:103968004A214DF20730FCF7FFFF00214DF20830E5
:10397800FCF7FAFF5C214DF20930FCF7F5FF002156
:103988004DF20A30FCF7F0FF81214DF20B30FCF7C5
:10399800EBFF00214DF20C30FCF7E6FFA6214DF2BB
:1039A8000D30FCF7E1FF00214DF20E30FCF7DCFF93
:1039B800E5214DF20F30FCF7D7FF01214DF2103011
:1039C800FCF7D2FF13214DF21130FCF7CDFF012196
:1039D8004DF21230FCF7C8FF54214DF21330FCF7BA
:1039E800C3FF01214DF21430FCF7BEFF82214DF2D6
:1039F8001530FCF7B9FF01214DF21630FCF7B4FF82
:103A0800CA214DF21730FCF7AFFF02214DF21830F2
:103A1800FCF7AAFF00214DF21930FCF7A5FF02219F
:103A28004DF21A30FCF7A0FF01214DF21B30FCF7D4
:103A38009BFF02214DF21C30FCF796FF34214DF21A
:103A48001D30FCF791FF02214DF21E30FCF78CFF70
:103A580067214DF21F30FCF787FF02214DF220301D
:103A6800FCF782FF84214DF22130FCF77DFF022113
:103A78004DF22230FCF778FFA4214DF22330FCF7F9
:103A880073FF02214DF22430FCF76EFFB7214DF28F
:103A98002530FCF769FF02214DF22630FCF764FF60
:103AA800CF214DF22730FCF75FFF02214DF228307D
:103AB800FCF75AFFDE214DF22930FCF755FF0221B1
:103AC8004DF22A30FCF750FFF2214DF22B30FCF773
:103AD8004BFF02214DF22C30FCF746FFFE214DF240
:103AE8002D30FCF741FF03214DF22E30FCF73CFF4F
:103AF80010214DF22F30FCF737FF03214DF2303003
:103B0800FCF732FF33214DF23130FCF72DFF032152
:103B18004DF23230FCF728FF6D214DF23330FCF7BF
:103B280023FF00214FF45440FCF71EFF33214DF2D0
:103B38000140FCF719FF00214DF20240FCF714FF89
:103B480034214DF20340FCF70FFF00214DF20440F1
:103B5800FCF70AFF3A214DF20540FCF705FF00216A
:103B68004DF20640FCF700FF4A214DF20740FCF7F2
:103B7800FBFE00214DF20840FCF7F6FE5C214DF2F9
:103B88000940FCF7F1FE00214DF20A40FCF7ECFE7B
:103B980081214DF20B40FCF7E7FE00214DF20C406D
:103BA800FCF7E2FEA6214DF20D40FCF7DDFE0021F8
:103BB8004DF20E40FCF7D8FEE5214DF20F40FCF720
:103BC800D3FE01214DF21040FCF7CEFE13214DF239
:103BD8001140FCF7C9FE01214DF21240FCF7C4FE6A
:103BE80054214DF21340FCF7BFFE01214DF2144061
:103BF800FCF7BAFE82214DF21540FCF7B5FE012113
:103C08004DF21640FCF7B0FECA214DF21740FCF702
:103C1800ABFE02214DF21840FCF7A6FE00214DF242
:103C28001940FCF7A1FE02214DF21A40FCF79CFE58
:103C380001214DF21B40FCF797FE02214DF21C407A
:103C4800FCF792FE34214DF21D40FCF78DFE022157
:103C58004DF21E40FCF788FE67214DF21F40FCF72D
:103C680083FE02214DF22040FCF77EFE84214DF2B6
:103C78002140FCF779FE02214DF22240FCF774FE48
:103C8800A4214DF22340FCF76FFE02214DF224409F
:103C9800FCF76AFEB7214DF22540FCF765FE0221CC
:103CA8004DF22640FCF760FECF214DF22740FCF78D
:103CB8005BFE02214DF22840FCF756FEDE214DF254
:103CC8002940FCF751FE02214DF22A40FCF74CFE38
:103CD800F2214DF22B40FCF747FE02214DF22C4019
:103CE800FCF742FEFE214DF22D40FCF73DFE03217C
:103CF8004DF22E40FCF738FE10214DF22F40FCF714
:103D080033FE03214DF23040FCF72EFE33214DF2F5
:103D18003140FCF729FE03214DF23240FCF724FE26
:103D28006D214DF23340FCF71FFE00214FF4554042
:103D3800FCF71AFE33214DF20150FCF715FE002165
:103D48004DF20250FCF710FE34214DF20350FCF7FF
:103D58000BFE00214DF20450FCF706FE3A214DF20D
:103D68000550FCF701FE00214DF20650FCF7FCFD62
:103D78004A214DF20750FCF7F7FD00214DF208509B
:103D8800FCF7F2FD5C214DF20950FCF7EDFD002136
:103D98004DF20A50FCF7E8FD81214DF20B50FCF77B
:103DA800E3FD00214DF20C50FCF7DEFDA6214DF29B
:103DB8000D50FCF7D9FD00214DF20E50FCF7D4FD53
:103DC800E5214DF20F50FCF7CFFD01214DF21050C7
:103DD800FCF7CAFD13214DF21150FCF7C5FD012176
:103DE8004DF21250FCF7C0FD54214DF21350FCF770
:103DF800BBFD01214DF21450FCF7B6FD82214DF2B6
:103E08001550FCF7B1FD01214DF21650FCF7ACFD41
:103E1800CA214DF21750FCF7A7FD02214DF21850A8
:103E2800FCF7A2FD00214DF21950FCF79DFD02217F
:103E38004DF21A50FCF798FD01214DF21B50FCF78A
:103E480093FD02214DF21C50FCF78EFD34214DF2FA
:103E58001D50FCF789FD02214DF21E50FCF784FD30
:103E680067214DF21F50FCF77FFD02214DF22050D3
:103E7800FCF77AFD84214DF22150FCF775FD0221F3
:103E88004DF22250FCF770FDA4214DF22350FCF7AF
:103E98006BFD02214DF22450FCF766FDB7214DF26F
:103EA8002550FCF761FD02214DF22650FCF75CFD20
:103EB800CF214DF22750FCF757FD02214DF2285033
:103EC800FCF752FDDE214DF22950FCF74DFD022191
:103ED8004DF22A50FCF748FDF2214DF22B50FCF729
:103EE80043FD02214DF22C50FCF73EFDFE214DF220
:103EF8002D50FCF739FD03214DF22E50FCF734FD0F
:103F080010214DF22F50FCF72FFD03214DF23050B8
:103F1800FCF72AFD33214DF23150FCF725FD032132
:103F28004DF23250FCF720FD6D214DF23350FCF775
:103F38001BFD00214FF45640FCF716FD33214DF2CE
:103F48000160FCF711FD00214DF20260FCF70CFD49
:103F580034214DF20360FCF707FD00214DF20460A7
:103F6800FCF702FD3A214DF20560FCF7FDFC00214B
:103F78004DF20660FCF7F8FC4A214DF20760FCF7A9
:103F8800F3FC00214DF20860FCF7EEFC5C214DF2D9
:103F98000960FCF7E9FC00214DF20A60FCF7E4FC3B
:103FA80081214DF20B60FCF7DFFC00214DF20C6023
:103FB800FCF7DAFCA6214DF20D60FCF7D5FC0021D8
:103FC8004DF20E60FCF7D0FCE5214DF20F60FCF7D6
:103FD800CBFC01214DF21060FCF7C6FC13214DF219
:103FE8001160FCF7C1FC01214DF21260FCF7BCFC2A
:103FF80054214DF21360FCF7B7FC01214DF2146017
:10400800FCF7B2FC82214DF21560FCF7ADFC0121F2
:104018004DF21660FCF7A8FCCA214DF21760FCF7B8
:10402800A3FC02214DF21860FCF79EFC00214DF222
:104038001960FCF799FC02214DF21A60FCF794FC18
:1040480001214DF21B60FCF78FFC02214DF21C6030
:10405800FCF78AFC34214DF21D60FCF785FC022137
:104068004DF21E60FCF780FC67214DF21F60FCF7E3
:104078007BFC02214DF22060FCF776FC84214DF296
:104088002160FCF771FC02214DF22260FCF76CFC08
:10409800A4214DF22360FCF767FC02214DF2246055
:1040A800FCF762FCB7214DF22560FCF75DFC0221AC
:1040B8004DF22660FCF758FCCF214DF22760FCF743
:1040C80053FC02214DF22860FCF74EFCDE214DF234
:1040D8002960FCF749FC02214DF22A60FCF744FCF8
:1040E800F2214DF22B60FCF73FFC02214DF22C60CF
:1040F800FCF73AFCFE214DF22D60FCF735FC03215C
:104108004DF22E60FCF730FC10214DF22F60FCF7C9
:104118002BFC03214DF23060FCF726FC33214DF2D5
:104128003160FCF721FC03214DF23260FCF71CFCE6
:104138006D214DF23360FCF717FC55214FF47040A8
:10414800FCF712FCAA214FF20100FCF70DFC5221EA
:104158004FF20200FCF708FC08214FF20300FCF7BD
:1041680003FC00214FF20400FCF7FEFBCC214FF4C6
:104178003140FCF7F9FB00214BF20110FCF7F4FB8E
:1041880005214FF43640FCF7EFFB70214FF4374020
:10419800FCF7EAFB70214BF20170FCF7E5FB01210B
:1041A8004FF43840FCF7E0FB03214BF60100FCF725
:1041B800DBFB03214BF60200FCF7D6FB03214BF691
:1041C8000300FCF7D1FB02214FF43C40FCF7CCFB89
:1041D80000214BF60140FCF7C7FB00214BF60240DB
:1041E800FCF7C2FBD0214FF44940FCF7BDFB02218C
:1041F8004CF60110FCF7B8FB50214CF60210FCF706
:10420800B3FB50214CF60310FCF7AEFB50214CF6E3
:104218000410FCF7A9FB00214FF45450FCF7A4FB51
:1042280055214FF46850FCF79FFB4FF48850FCF77A
:104238000FFB012003F050FB4FF42450FCF708FB60
:1042480001F018BDEC4B9B8849F22532934240F0AF
:10425800D78047F6F001E520FCF786FB4FF4807124
:104268000120FCF781FB4FF4E0610220FCF77CFBA6
:1042780041F230010320FCF777FB00210420FCF712
:1042880073FB40F202210820FCF76EFB0021092095
:10429800FCF76AFB00210A20FCF766FB00210C20D2
:1042A800FCF762FB00210D20FCF75EFB00210F20CC
:1042B800FCF75AFB00211020FCF756FB07211120C0
:1042C800FCF752FB00211220FCF74EFB00211320C3
:1042D800FCF74AFB00210720FCF746FB41F29061FE
:1042E8001020FCF741FB40F227211120FCF73CFB92
:1042F8009D211220FCF738FB4FF4C8511320FCF71E
:1043080033FB25212920FCF72FFB0D212B20FCF75F
:104318002BFB07213020FCF727FB40F2033131202B
:10432800FCF722FB03213220FCF71EFB40F206219A
:104338003520FCF719FB08213620FCF715FB40F265
:1043480006413720FCF710FB4FF441713820FCF789
:104358000BFB07213920FCF707FB40F202613C20E8
:10436800FCF702FB08213D20FCF7FEFA0021502053
:10437800FCF7FAFAEF215120FCF7F6FA0021522057
:10438800FCF7F2FA40F23F115320FCF7EDFA4FF434
:1043980027416020FCF7E8FA01216120FCF7E4FAE4
:1043A80000216A20FCF7E0FA00218020FCF7DCFA03
:1043B80000218120FCF7D8FA00218220FCF7D4FAEA
:1043C80000218320FCF7D0FA00218420FCF7CCFAE6
:1043D80000218520FCF7C8FA10219020FCF7C4FAC8
:1043E8004FF4C0619220FCF7BFFA40F23311072066
:1043F800FCF7BAFA22210020FCF7B6FA01F03ABC21
:104408007D4B9B8849F22832934240F0F78041F275
:104418008F01EC20FCF7A8FA41F23421EF20FCF7D9
:10442800A3FA4FF480710120FCF79EFA4FF4E06183
:104438000220FCF799FA41F230010320FCF794FAC4
:1044480000210420FCF790FA40F202210820FCF732
:104458008BFA00210920FCF787FA00210A20FCF7D3
:1044680083FA01210C20FCF77FFA00210D20FCF7CC
:104478007BFA00210F20FCF777FA00211020FCF7C7
:1044880073FA07211120FCF76FFA00211220FCF7BC
:104498006BFA00211320FCF767FA01210720FCF7CB
:1044A80063FA322003F018FA41F290411020FCF729
:1044B8005BFA40F227211120FCF756FA322003F06C
:1044C8000BFA8A211220FCF74FFA322003F004FA83
:1044D8004FF4D0511320FCF747FA06212920FCF7A6
:1044E80043FA0D212B20FCF73FFA322003F0F4F9B0
:1044F80000212020FCF738FA00212120FCF734FAAB
:10450800322003F0E9F900213020FCF72DFA40F2BF
:1045180004613120FCF728FA40F205313220FCF71B
:1045280023FA00213520FCF71FFA40F6094136200E
:10453800FCF71AFA4FF401713720FCF715FA40F22C
:1045480001313820FCF710FA40F207713920FCF7E6
:104558000BFA00213C20FCF707FA40F60A213D201F
:10456800FCF702FA322003F0B7F900215020FCF7DB
:10457800FBF9EF215120FCF7F7F900215220FCF755
:10458800F3F940F23F115320FCF7EEF94FF42741BD
:104598006020FCF7E9F901216120FCF7E5F9002129
:1045A8006A20FCF7E1F900218020FCF7DDF9002101
:1045B8008120FCF7D9F900218220FCF7D5F90021E8
:1045C8008320FCF7D1F900218420FCF7CDF90021E4
:1045D8008520FCF7C9F910219020FCF7C5F94FF4A4
:1045E800C0619220FCF7C0F940F233110720FCF7B4
:1045F800BBF901F03FBB00BFCC100020CE4B9B881D
:1046080049F22032934240F0AD8000210020FCF7AF
:10461800ABF94FF480710120FCF7A6F94FF4E06183
:104628000220FCF7A1F941F230010320FCF79CF9C4
:1046380000210420FCF798F940F202210820FCF739
:1046480093F900210920FCF78FF900210A20FCF7D3
:104658008BF901210C20FCF787F900210D20FCF7CC
:1046680083F900210F20FCF77FF9322003F034F999
:1046780040F201110720FCF777F9322003F02CF9FA
:104688004FF486511020FCF76FF907211120FCF731
:104698006BF94FF488711220FCF766F94FF430611A
:1046A8001320FCF761F900212920FCF75DF944F299
:1046B80010012B20FCF758F900215020FCF754F981
:1046C800EF215120FCF750F900215220FCF74CF95A
:1046D80040F23F115320FCF747F94FF41C5160207A
:1046E800FCF742F901216120FCF73EF900216A201C
:1046F800FCF73AF900218020FCF736F900218120E7
:10470800FCF732F900218220FCF72EF900218320E2
:10471800FCF72AF900218420FCF726F900218520DE
:10472800FCF722F910219020FCF71EF900219220B5
:10473800FCF71AF901219320FCF716F94FF4887158
:104748009520FCF711F900219720FCF70DF90021BD
:104758009820FCF709F940F273110720FCF704F9D7
:1047680001F088BA744B9B8849F23132934240F089
:10477800E58041F21401E720FCF7F6F84FF4807168
:104788000120FCF7F1F84FF400710220FCF7ECF877
:1047980041F238010320FCF7E7F840F20221082033
:1047A800FCF7E2F800210920FCF7DEF800210A20D6
:1047B800FCF7DAF800210C20FCF7D6F800210D20D0
:1047C800FCF7D2F800210F20FCF7CEF800211020CA
:1047D800FCF7CAF807211120FCF7C6F800211220BF
:1047E800FCF7C2F800211320FCF7BEF8C82003F03C
:1047F80073F841F290611020FCF7B6F840F22721D7
:104808001120FCF7B1F8322003F066F80C211220D1
:10481800FCF7AAF8322003F05FF84FF40061132088
:10482800FCF7A2F811212920FCF79EF80B212B2078
:10483800FCF79AF8322003F04FF800212020FCF70B
:1048480093F840F23F112120FCF78EF80021302028
:10485800FCF78AF84FF483713120FCF785F80021C2
:104868003220FCF781F84FF401713520FCF77CF811
:1048780041F20A613620FCF777F840F207713720D9
:10488800FCF772F84FF483713820FCF76DF840F2AA
:1048980007713920FCF768F840F202413C20FCF728
:1048A80063F840F60F413D20FCF75EF800215020E8
:1048B800FCF75AF8EF215120FCF756F80021522056
:1048C800FCF752F840F23F115320FCF74DF84FF433
:1048D8001C516020FCF748F801216120FCF744F8DE
:1048E80000216A20FCF740F800218020FCF73CF802
:1048F80000218120FCF738F800218220FCF734F8E9
:1049080000218320FCF730F800218420FCF72CF8E4
:1049180000218520FCF728F810219020FCF724F8C6
:104928004FF4C0619220FCF71FF840F233110720C2
:10493800FCF71AF801F09EB9CC100020E24B9B88D6
:1049480045F20842934240F0A3804FF48071012061
:10495800FCF70AF84FF4E0610220FCF705F841F291
:1049680030010320FCF700F800210420FBF7FCFFCE
:1049780040F207210820FBF7F7FF00210920FBF789
:10498800F3FF00210A20FBF7EFFF00210C20FBF7C3
:10499800EBFF00210D20FBF7E7FF00210F20FBF7BD
:1049A800E3FF142002F098FF41F2B0611020FBF7FA
:1049B800DBFF01211120FBF7D7FF01211720FBF7AF
:1049C800D3FF4FF49C711220FBF7CEFF4FF4006128
:1049D8001320FBF7C9FF09212920FBF7C5FF09218F
:1049E8002A20FBF7C1FF0021A420FBF7BDFF00210F
:1049F8005020FBF7B9FFEF215120FBF7B5FF00214D
:104A08005220FBF7B1FF40F23F115320FBF7ACFFF8
:104A18004FF41C516020FBF7A7FF01216120FBF731
:104A2800A3FF00216A20FBF79FFF00218020FBF7EE
:104A38009BFF00218120FBF797FF00218220FBF7D5
:104A480093FF00218320FBF78FFF00218420FBF7D1
:104A58008BFF00218520FBF787FF13219020FBF7B0
:104A680083FF00219220FBF77FFF03219320FBF7B0
:104A78007BFF4FF488719520FBF776FF40F27311A6
:104A88000720FBF771FF322002F026FF01F0F2B891
:104A98008D4B9B8841F20552934240F017810021CB
:104AA8000720FBF761FF322002F016FF4FF48E71EA
:104AB8001220FBF759FF0121A420FBF755FF0F2116
:104AC8000820FBF751FF08210A20FBF74DFF0821BA
:104AD8000D20FBF749FF40F207713020FBF744FF38
:104AE80007213120FBF740FF40F203613220FBF73A
:104AF8003BFF4FF4E0613320FBF736FF40F2022121
:104B08003420FBF731FF02213520FBF72DFF41F65A
:104B18000F713620FBF728FF40F207713720FBF7AB
:104B280023FF00213820FBF71FFF00213920FBF766
:104B38001BFF40F207713A20FBF716FF00213B20CC
:104B4800FBF712FF07213C20FBF70EFF00213D2059
:104B5800FBF70AFF322002F0BFFE01210720FBF716
:104B680003FF01211720FBF7FFFE322002F0B4FEFD
:104B78004FF4BD511020FBF7F7FE40F2172111202A
:104B8800FBF7F2FE4FF48F711220FBF7EDFE4FF4A6
:104B980070611320FBF7E8FE00212A20FBF7E4FEF2
:104BA8000A212920FBF7E0FE4FF49F711220FBF742
:104BB800DBFE00215020FBF7D7FEEF215120FBF749
:104BC800D3FE00215220FBF7CFFE40F23F115320C5
:104BD800FBF7CAFE4FF41C516020FBF7C5FE01210C
:104BE8006120FBF7C1FE00216A20FBF7BDFE002112
:104BF8008020FBF7B9FE00218120FBF7B5FE0021DC
:104C08008220FBF7B1FE00218320FBF7ADFE0021D7
:104C18008420FBF7A9FE00218520FBF7A5FE1321C0
:104C28009020FBF7A1FE4FF440719220FBF79CFE09
:104C380005219320FBF798FE00219520FBF794FEB1
:104C480000219720FBF790FE00219820FBF78CFEAF
:104C58004FF480710120FBF787FE4FF4E0610220DA
:104C6800FBF782FE41F238010320FBF77DFE0021AD
:104C78000420FBF779FE00210C20FBF775FE0021CC
:104C88000F20FBF771FE00212020FBF76DFE0021AD
:104C98002120FBF769FE21210720FBF765FE142080
:104CA80002F01AFE61210720FBF75EFE142002F0D5
:104CB80013FE40F273110720FBF756FE142002F092
:104CC8000BFE00F0D7BF00BFCC100020F04B9B8834
:104CD8004BF20552934240F0038100210020FBF77C
:104CE80043FE00210020FBF73FFE00210020FBF7D8
:104CF8003BFE00210020FBF737FE0121A420FBF733
:104D080033FE142002F0E8FD4FF41C516020FBF73D
:104D18002BFE40F202210820FBF726FE4FF4057116
:104D28003020FBF721FE43F215713120FBF71CFE02
:104D380040F204613220FBF717FE40F6166133207B
:104D4800FBF712FE42F211213420FBF70DFE4FF45F
:104D5800A8513520FBF708FE48F207513620FBF72B
:104D680003FE41F207413720FBF7FEFD41F2034104
:104D78003820FBF7F9FD20213920FBF7F5FD1A2132
:104D88009020FBF7F1FD00211020FBF7EDFD072136
:104D98001120FBF7E9FD00211220FBF7E5FD0021BA
:104DA8001320FBF7E1FD142002F096FD4FF4E661B5
:104DB8001020FBF7D9FD40F237111120FBF7D4FD85
:104DC800142002F089FD4FF4DC711220FBF7CCFDB2
:104DD800142002F081FD4FF470611320FBF7C4FD2D
:104DE80080212A20FBF7C0FD48212920FBF7BCFDC4
:104DF800142002F071FD4FF480710120FBF7B4FD1F
:104E08004FF4E0610220FBF7AFFD41F238010320C7
:104E1800FBF7AAFD40F202210820FBF7A5FD0021BF
:104E28000A20FBF7A1FD00210C20FBF79DFD0021C6
:104E38000D20FBF799FD30210E20FBF795FD002191
:104E48005020FBF791FDEF215120FBF78DFD00214C
:104E58005220FBF789FD40F23F115320FBF784FDF8
:104E68004FF41C516020FBF77FFD01216120FBF707
:104E78007BFD00216A20FBF777FD11219020FBF7CD
:104E880073FD4FF4C0619220FBF76EFD40F20241C2
:104E98009320FBF769FD02219420FBF765FD1420A0
:104EA80002F01AFD01210720FBF75EFD142002F035
:104EB80013FD61210720FBF757FD40F2731107200E
:104EC800FBF752FD00212020FBF74EFD0021212099
:104ED800FBF74AFD22210020FBF746FD00F0CABE81
:104EE8006B4B9B884CF20552934240F0D3800021D3
:104EF8000020FBF739FD00210020FBF735FD1420C9
:104F080002F0EAFC00210020FBF72EFD0021002022
:104F1800FBF72AFD00210020FBF726FD00210020D9
:104F2800FBF722FD0121A420FBF71EFD142002F04F
:104F3800D3FC4FF41C516020FBF716FD40F6060128
:104F48000820FBF711FD40F203713020FBF70CFD40
:104F580001213120FBF708FD04213220FBF704FD75
:104F68004FF481713320FBF7FFFC4FF4407134207C
:104F7800FBF7FAFC40F203113520FBF7F5FC1F2183
:104F88003620FBF7F1FC40F203713720FBF7ECFC0D
:104F980001213820FBF7E8FC04213920FBF7E4FC69
:104FA80015219020FBF7E0FC4FF482611020FBF7FD
:104FB800DBFC40F247211120FBF7D6FC4FF4DE71F1
:104FC8001220FBF7D1FC4FF460611320FBF7CCFCF7
:104FD800782002F081FC4FF480710120FBF7C4FCBB
:104FE8004FF400710220FBF7BFFC41F230010320AF
:104FF800FBF7BAFC08210A20FBF7B6FC00210C20BD
:10500800FBF7B2FC20210E20FBF7AEFC00210F209D
:10501800FBF7AAFC00212020FBF7A6FC0021212099
:10502800FBF7A2FC3D212A20FBF79EFC142002F08E
:1050380053FC2D212920FBF797FC00215020FBF77A
:1050480093FC4DF2EF015120FBF78EFC002152201A
:10505800FBF78AFC40F23F115320FBF785FC002147
:105068006120FBF781FC00216A20FBF77DFC4FF4EF
:1050780040719220FBF778FC05219320FBF774FC24
:105088004FF480710720FBF76FFC00F0F3BD00BF01
:10509800CC100020C24B9B8848F68912934240F0FE
:1050A800BC8001210020FBF75FFC4AF6A401032025
:1050B800FBF75AFC00210C20FBF756FC40F60C01CC
:1050C8000D20FBF751FC4FF42C510E20FBF74CFC44
:1050D800B0211E20FBF748FC42F63F310120FBF7C8
:1050E80043FC4FF4C0610220FBF73EFC0021102076
:1050F800FBF73AFC46F278011120FBF735FC00215A
:105108000520FBF731FC00210620FBF72DFC4EF6AD
:105118001C711620FBF728FC03211720FBF724FC41
:1051280040F233210720FBF71FFC00210B20FBF77F
:105138001BFC00210F20FBF717FC00214120FBF787
:1051480013FC00214220FBF70FFC00214820FBF74D
:105158000BFC40F23F114920FBF706FC00214A20D6
:10516800FBF702FC00214B20FBF7FEFB4FF46F41DD
:105178004420FBF7F9FB00214520FBF7F5FB40F243
:105188003F114620FBF7F0FB40F207713020FBF798
:10519800EBFB4FF401713120FBF7E6FB4FF4017193
:1051A8003220FBF7E1FB40F202513320FBF7DCFB36
:1051B80040F207513420FBF7D7FB4FF4017135203B
:1051C800FBF7D2FB4FF401713620FBF7CDFB40F221
:1051D80002513720FBF7C8FB40F202313A20FBF7B7
:1051E800C3FB40F202313B20FBF7BEFB002123202A
:1051F800FBF7BAFB00212420FBF7B6FB4FF4004174
:105208002520FBF7B1FB00214F20FBF7ADFB002168
:105218004E20FBF7A9FB00F02DBD614B9B8844F2A3
:105228003152934240F0BE8001210020FBF79CFBE5
:105238000A2002F051FB41F228611020FBF794FB91
:105248000E211220FBF790FB40F639211320FBF7C3
:105258008BFB0A2002F040FB40211120FBF784FB66
:1052680050211520FBF780FB0A2002F035FB1E2198
:105278001220FBF779FB0A2002F02EFB4FF4B15104
:105288001020FBF771FB42F639211320FBF76CFB6A
:105298000A2002F021FB4FF480710120FBF764FB28
:1052A8004FF440710220FBF75FFB41F23801032005
:1052B800FBF75AFB40F202210820FBF755FB0821B7
:1052C8000A20FBF751FB00213020FBF74DFB40F291
:1052D80002413120FBF748FB4FF483713220FBF782
:1052E80043FB40F203513320FBF73EFB4FF482713E
:1052F8003420FBF739FB40F201313520FBF734FB52
:1053080040F207713620FBF72FFB40F205313720BA
:10531800FBF72AFB4FF402713820FBF725FB40F618
:105328000B713920FBF720FB02214120FBF71CFB06
:105338004FF41C516020FBF717FB01216120FBF79C
:1053480013FB4FF404719020FBF70EFB4FF48571AB
:105358009220FBF709FB04219320FBF705FB4FF490
:105368008071A020FBF700FB01210720FBF7FCFA66
:1053780021210720FBF7F8FA23210720FBF7F4FA8D
:1053880033210720FBF7F0FA40F233110720FBF72F
:10539800EBFA0021A020FBF7E7FA00F06BBC00BF96
:1053A800CC1000205B4B9B8844F23552934240F06E
:1053B800B38030211520FBF7D7FA10219A20FBF78C
:1053C800D3FA20211120FBF7CFFA43F2284110200D
:1053D800FBF7CAFA02211220FBF7C6FA41F238019C
:1053E8001320FBF7C1FA282002F076FA12211220C6
:1053F800FBF7BAFA282002F06FFA43F22041102096
:10540800FBF7B2FA43F238011320FBF7ADFA462056
:1054180002F062FA00213020FBF7A6FA40F20241BE
:105428003120FBF7A1FA40F207313220FBF79CFA52
:105438004FF441713320FBF797FA04213420FBF72E
:1054480093FA40F201413520FBF78EFA40F20771DA
:105458003620FBF789FA40F205313720FBF784FA4A
:105468004FF4C2613820FBF77FFA4FF4C26139204C
:10547800FBF77AFA4FF480710120FBF775FA4FF4C5
:1054880040710220FBF770FA41F230010320FBF76C
:105498006BFA40F608010820FBF766FA08210A2093
:1054A800FBF762FA4FF41C516020FBF75DFA01210B
:1054B8006120FBF759FA4FF49F719020FBF754FADB
:1054C8004FF480719220FBF74FFA4FF480719320CC
:1054D800FBF74AFA4FF44051A020FBF745FA102198
:1054E800A320FBF741FA01210720FBF73DFA212110
:1054F8000720FBF739FA23210720FBF735FA332178
:105508000720FBF731FA40F233110720FBF72CFA9A
:10551800B0E300BFCC100020A84B9B8841F6631273
:10552800934240F0A783E220FBF792F9A44B4FF493
:1055380080721A61A24B4FF400725A61A14B1D226E
:10554800DA609F4B80225A619D4B80221A619C4BE6
:105558004FF400721A619A4B4FF480721A61984B9B
:105568004FF400725A61974B0222DA60944B802202
:105578005A61934B80221A61914B4FF400721A6161
:105588008F4B4FF480721A618D4B4FF400725A6141
:105598008C4B0422DA608A4B80225A61884B802225
:1055A8001A61874B4FF400721A61012002F094F9D6
:1055B800E020FBF74DF9824B4FF480721A61804B63
:1055C8004FF400725A617F4B0122DA607C4B8022D3
:1055D8005A617B4B80221A61794B4FF400721A6131
:1055E8000A2002F079F9E020FBF732F9744B4FF406
:1055F80080721A61724B4FF400725A61714B032228
:10560800DA606F4B80225A616D4B80221A616C4BB5
:105618004FF400721A610C2002F05EF90120FBF7CA
:1056280017F90A2002F058F9E620FBF711F9644B44
:105638004FF480721A61624B4FF400725A61614BE9
:105648002F22DA605E4B80225A615D4B80221A61FC
:105658005B4B4FF400721A61594B4FF480721A6118
:10566800574B4FF400725A61564BFF22DA60544B85
:1056780080225A61524B80221A61514B4FF40072BA
:105688001A614F4B4FF480721A614D4B4FF4007200
:105698005A614C4BFF22DA60494B80225A61484BD1
:1056A80080221A61464B4FF400721A61B020FBF752
:1056B800CFF8434B4FF480721A61414B4FF400729C
:1056C8005A61404B2022DA603D4B80225A613C4BA4
:1056D80080221A613A4B4FF400721A61384B4FF42A
:1056E80080721A61364B4FF400725A61354B0022B2
:1056F800DA60334B80225A61314B80221A61304B79
:105708004FF400721A612E4B4FF480721A612C4BC1
:105718004FF400725A612B4B0322DA60284B802227
:105728005A61274B80221A61254B4FF400721A6187
:10573800234B4FF480721A61214B4FF400725A6167
:10574800204B40F21F32DA601D4B80225A611C4BFD
:1057580080221A611A4B4FF400721A61184B4FF4E9
:1057680080721A61164B4FF400725A61154B012270
:10577800DA60134B80225A61114B80221A61104B58
:105788004FF400721A610E4B4FF480721A610C4B81
:105798004FF400725A610B4B40F2DF12DA60084B8B
:1057A80080225A61064B80221A61054B4FF4007221
:1057B8001A61034B4FF4807206E000BFCC10002042
:1057C80000100140000C01401A61A34B4FF4007215
:1057D8005A61A24B0022DA609F4B80225A619E4B8D
:1057E80080221A619C4B4FF400721A61B420FBF7B7
:1057F8002FF8994B4FF480721A61974B4FF400724F
:105808005A61964B0422DA60934B80225A61924B7C
:1058180080221A61904B4FF400721A618E4B4FF43C
:1058280080721A618C4B4FF400725A618B4B40F2B4
:105838001F42DA60884B80225A61874B80221A61A6
:10584800854B4FF400721A61834B4FF480721A61D2
:10585800814B4FF400725A61804B0022DA607E4B14
:1058680080225A617C4B80221A617B4B4FF4007274
:105878001A61794B4FF480721A61774B4FF40072BA
:105888005A61764B2E22DA60734B80225A61724B32
:1058980080221A61704B4FF400721A616E4B4FF4FC
:1058A80080721A616C4B4FF400725A616B4B002284
:1058B800DA60694B80225A61674B80221A61664B15
:1058C8004FF400721A61644B4FF480721A61624B94
:1058D8004FF400725A61614B0022DA605E4B8022FD
:1058E8005A615D4B80221A615B4B4FF400721A615A
:1058F800594B4FF480721A61574B4FF400725A613A
:10590800564B0022DA60544B80225A61524B802257
:105918001A61514B4FF400721A614F4B4FF4807269
:105928001A614D4B4FF400725A614C4B0022DA60F9
:10593800494B80225A61484B80221A61464B4FF4EA
:1059480000721A61B620FAF783FF434B4FF4807256
:105958001A61414B4FF400725A61404B0222DA60DF
:105968003D4B80225A613C4B80221A613A4B4FF4DE
:1059780000721A61384B4FF480721A61364B4FF43B
:1059880000725A61354B4FF40372DA60324B802251
:105998005A61314B80221A612F4B4FF400721A6101
:1059A8002D4B4FF480721A612B4B4FF400725A61E1
:1059B8002A4B0022DA60284B80225A61264B80222B
:1059C8001A61254B4FF400721A61234B4FF4807211
:1059D8001A61214B4FF400725A61204B1722DA608A
:1059E8001D4B80225A611C4B80221A611A4B4FF4BE
:1059F80000721A61184B4FF480721A61164B4FF4FB
:105A080000725A61154B1522DA60134B80225A61D5
:105A1800114B80221A61104B4FF400721A610E4B21
:105A28004FF480721A610C4B4FF400725A610B4BA1
:105A38000022DA60084B80225A61074B80221A61E3
:105A4800054B4FF400721A61034B4FF480721A61D0
:105A5800014B4FF4007203E000100140000C0140BC
:105A68005A618B4B0022DA608A4B80225A61894B3B
:105A780080221A61874B4FF400721A61F020FAF7FE
:105A8800E7FE844B4FF480721A61824B4FF4007228
:105A98005A617F4B0322DA607E4B80225A617D4B2C
:105AA80080221A617B4B4FF400721A612920FAF7A1
:105AB800CFFED020FAF7CCFE764B4FF480721A61F5
:105AC800744B4FF400725A61714B0022DA60714BCB
